{
  "_format": "hh-sol-artifact-1",
  "contractName": "Counter",
  "sourceName": "contracts/Counter.sol",
  "abi": [
    {
      "inputs": [],
      "name": "decrement",
      "outputs": [],
      "stateMutability": "nonpayable",
      "type": "function"
    },
    {
      "inputs": [],
      "name": "getCount",
      "outputs": [
        {
          "internalType": "uint256",
          "name": "",
          "type": "uint256"
        }
      ],
      "stateMutability": "view",
      "type": "function"
    },
    {
      "inputs": [],
      "name": "increment",
      "outputs": [],
      "stateMutability": "nonpayable",
      "type": "function"
    }
  ],
  "bytecode": "0x60806040526000805534801561001457600080fd5b506101c3806100246000396000f3fe608060405234801561001057600080fd5b50600436106100415760003560e01c80632baeceb714610046578063a87d942c14610050578063d09de08a1461006e575b600080fd5b61004e610078565b005b61005861009e565b60405161006591906100db565b60405180910390f35b6100766100a7565b005b60008054111561009c5760016000808282546100949190610125565b925050819055505b565b60008054905090565b60016000808282546100b99190610159565b92505081905550565b6000819050919050565b6100d5816100c2565b82525050565b60006020820190506100f060008301846100cc565b92915050565b7f4e487b7100000000000000000000000000000000000000000000000000000000600052601160045260246000fd5b6000610130826100c2565b915061013b836100c2565b9250828203905081811115610153576101526100f6565b5b92915050565b6000610164826100c2565b915061016f836100c2565b9250828201905080821115610187576101866100f6565b5b9291505056fea2646970667358221220cba897d8eee068f71be39ace5c7da6f9fdf85e589bfc0c14d8cb1479c737ef5164736f6c63430008130033",
  "linkReferences": {},
  "deployedLinkReferences": {}
}